:0400000002002132A7
:03000B00020222CC
:0100130032BA
:03001B000204AF2D
:20007A007521FF7522FF752300752401752500752600752700752800752900752A00752BBE
:19009A00FC752C60752DDA752EF2752F667530B67531BE7532E002001ECF
:03001E0002014696
:2000B30075330075340475350875360C753701753805753909753A0D753B02753C06753D82
:2000D3000A753E0E753F0375400775410B75420F7F008F4374FC25434055AD438DF005F028
:2000F3007410800225E0D5F0FBF4F5807D008D4474FC254440338544F005F07A017B0080FB
:2001130006EA2AFAEB33FBD5F0F7AC807E00EC5202EE5203EA4B700BED2D25E024332FF968
:200133008782220544AD4480C70543AF4380A57582FF2275A88A758901D28ED28C75907FA1
:20015300E52120E710C374868521F063F08095F040030201E9C3E521648094875003020177
:20017300E6C3748E8521F063F08095F050030201E6E52124F9FF240A83F582EF240C83F5B6
:2001930083E473A6AEB6BEC6CED6DE01010101010101017523007521FF803B752301752143
:2001B300FF80337523027521FF802B7523037521FF80237523047521FF801B7523057521CE
:2001D300FF80137521FF752306800B7521FF75230780037521FFE523242BF9E7FFF4F5A0B1
:2001F3007406B5230280030201537428B529050524752900740DB5210280067524000201FE
:20021300537431B524E4752300752400020153C0E0C0F0C082C083C0D075D0087403B5238E
:200233004374FFB52102803C74072521FFC2D575F002EF30E704B2D5F404A430D50AF4244F
:2002530001C5F0F43400C5F02412F582740535F0F583E493FEA3E493FC7D008C8C7F008E08
:200273008A02049F7407B5234374FFB52102803C740E2521FFC2D575F002EF30E704B2D549
:20029300F404A430D50AF42401C5F0F43400C5F02412F582740535F0F583E493FEA3E493A3
:2002B300FC7D008C8C7F008E8A02049F7404B5234274FFB52102803BE52104FFC2D575F0C1
:2002D30002EF30E704B2D5F404A430D50AF42401C5F0F43400C5F02412F582740535F0F5E2
:2002F30083E493FEA3E493FC7D008C8C7F008E8A02049F7406B5233E740DB52139E524756E
:20031300F002A4243CF582740535F0F583E493FEA3E493FFEE2EFEEF33FFEE2412F582EFF4
:200333003405F583E493FEA3E493FC7D008C8C7F008E8A02049F7405B5234C74FFB52102B5
:20035300804574FAB5280675280002049F0528C2D575F002E52130E704B2D5F404A430D5BE
:200373000AF42401C5F0F43400C5F02412F582740535F0F583E493FEA3E493FC7D008C8CD2
:200393007F008E8A02049F7402B5234E74C8B52708052675270002049FE525B526030204F8
:2003B3009FE52675F002A42401F582740035F0F583E0FEA3E0FFEE2EFEEF33FFEE2412F514
:2003D30082EF3405F583E493FEA3E493FC7D008C8C7F008E8A052702049F7401B523028091
:2003F3000302046A052AE52120E735C374868521F063F08095F04028E521B522028021E58E
:200413002575F002A42401F582740035F0F583E521FE3395E0FFEEF0EFA3F00525852122EF
:20043300C2D575F002E52130E704B2D5F404A430D50AF42401C5F0F43400C5F02412F58200
:20045300740535F0F583E493FEA3E493FC7D008C8C7F008E8A8035C2D575F002E52130E7EC
:2004730004B2D5F404A430D50AF42401C5F0F43400C5F02412F582740535F0F583E493FE50
:20049300A3E493FC7D008C8C7F008E8AE590F4F590D0D0D083D082D0F0D0E032C020C0E0B2
:2004B300C0F0C082C083C007C006C005C004C003C002C001C000C0D075D0001200B375D0F9
:2004D300108582217406B5230F740DB5210A758D0B758BDC05298006758DB1758BE0D0D03F
:1B04F300D000D001D002D003D004D005D006D007D083D082D0F0D0E0D020321B
:200512008CF85CF915FA68FA05FB90FB0CFC46FCAEFC0BFD34FD83FDC8FD06FE23FE57FE08
:2005320086FE9AFEC2FEE4FE03FF04000200020003000100010000000100020003000400D2
:20055200040004000400020002000300010001000000020004000400020001000100010065
:20057200010001000200030002000200020002000200030004000400020002000300010045
:20059200010000000200040004000000FFFFFFFFFFFFFFFFFFFFFFFFFFFFFFFFFFFFFFFF52
:2005B200FFFFFFFFFFFFFFFFFFFFFFFFFFFFFFFFFFFFFFFFFFFFFFFFFFFFFFFFFFFFFFFF49
:2005D200FFFFFFFFFFFFFFFFFFFFFFFFFFFFFFFFFFFFFFFFFFFFFFFFFFFFFFFFFFFFFFFF29
:2005F200FFFFFFFFFFFFFFFFFFFFFFFFFFFFFFFFFFFFFFFFFFFFFFFFFFFFFFFFFFFFFFFF09
:20061200FFFFFFFFFFFFFFFFFFFFFFFFFFFFFFFFFFFFFFFFFFFFFFFFFFFFFFFFFFFFFFFFE8
:20063200FFFFFFFFFFFFFFFFFFFFFFFFFFFFFFFFFFFFFFFFFFFFFFFFFFFFFFFFFFFFFFFFC8
:20065200FFFFFFFFFFFFFFFFFFFFFFFFFFFFFFFFFFFFFFFFFFFFFFFFFFFFFFFFFFFFFFFFA8
:1C067200FFFFFFFFFFFFFFFFFFFFFFFFFFFFFFFFFFFFFFFFFFFFFFFFFFFFFFFF88
:06005000E478FFF6D8FD84
:20002E0079F0E94400601B7A0190059E780175A000E493F2A308B8000205A0D9F4DAF275E4
:02004E00A0FF11
:200056007800E84400600A790175A000E4F309D8FC7800E84400600C7900900001E4F0A3A8
:04007600D8FCD9FADF
:0D00210075814412050EE582600302001E89
:04050E0075820022D0
:00000001FF
